S0170000426C7565746F6F746854696E7931332E737265634F
S113000009C017C015C014C013C012C021C010C04D
S11300100FC00EC011241FBECFE9CDBF20E0A0E663
S1130020B0E001C01D92A436B207E1F75FD09FC0D3
S1130030E7CF1F920F920FB60F9211248F9381E096
S1130040809363008F910F900FBE0F901F901895AF
S11300501F920F920FB60F9211248F93F89419BE2A
S113006013BE16BE12BE89B7846089BF8EE386BFF5
S11300708FB582608FBD81E083BF809360008F91D4
S11300800F900FBE0F901F9018951092610082E0A0
S113009085BF80E48BBF809163008823E1F315BEA4
S11300A01BBE8DE38093620012BE89B7846089BF52
S11300B08EE386BF81E083BF1092630099E0809154
S11300C060008823E1F386B38091610080688093A7
S11300D061008091610086958093610010926000B8
S11300E0915069F78091610090E00895B998B89AA9
S11300F0BA9AC198C09A2FEB84ED91E021508040C8
S11301009040E1F700C00000C0982FEB84ED91E02F
S1130110215080409040E1F700C00000C09A2FEBCE
S113012084ED91E0215080409040E1F700C0000050
S1130130C0987894AADF80916100823360F4C29AF7
S11301402FEB84ED91E0215080409040E1F700C016
S11301500000C298EFCFC09A2FEB84ED91E02150BC
S113016080409040E1F700C00000C098E3CFF894CD
S1050170FFCFBB
S9030000FC
